:020000040800F2
:1000000080F9012021910008CD0C0008CF0C0008D8
:10001000D10C0008D30C0008D50C0008000000002B
:10002000000000000000000000000000D70C0008E5
:10003000D90C000800000000C3AC0308958C000830
:100040003B9100083B9100083B910008AB6200081F
:100050003B9100083B9100083B9100083B91000850
:100060003B9100083B9100083B9100083B91000840
:100070003B9100083B9100083B9100083B91000830
:100080003B9100083B9100083B9100083B91000820
:100090003B9100083B9100083B9100083B91000810
:1000A0003B9100083B9100083B9100083B91000800
:1000B0003B9100083B9100083B9100083B910008F0
:1000C0003B9100083B9100083B9100083B910008E0
:1000D0003B910008FD8F0008B59000084B90000888
:1000E0003B910008D76200083B9100083B91000853
:1000F0003B9100083B9100083B9100083B910008B0
:100100003B9100083B9100083B9100083B9100089F
:100110003B9100083B9100083B9100083B9100088F
:100120003B9100083B9100083B9100083B9100087F
:100130003B9100083B9100083B9100083B9100086F
:100140003B9100083B9100083B9100083B9100085F
:100150003B9100083B9100083B9100083B9100084F
:100160003B9100083B9100083B9100083B9100083F
:100170003B9100083B9100083B9100083B9100082F
:100180003B9100083B91000800F002F800F0B2F843
:100190000AA090E8000C82448344AAF10107DA45E2
:1001A00001D100F0A7F8AFF2090EBAE80F0013F082
:1001B000010F18BFFB1A43F001031847E44705007D
:1001C000044805000A444FF0000C10F8013B13F0FE
:1001D000070408BF10F8014B1D1108BF10F8015BA0
:1001E000641E05D010F8016B641E01F8016BF9D193
:1001F00013F0080F1EBF10F8014BAD1C0C1B09D1EA
:100200006D1E58BF01F801CBFAD505E014F8016B5B
:1002100001F8016B6D1EF9D59142D6D370470000ED
:100220000023002400250026103A28BF78C1FBD8FF
:10023000520728BF30C148BF0B6070476E2939F0A4
:100240005D82702938F0638766293CF0A2816529B8
:100250003CF09F8167293CF09C8161293CF09B81A7
:1002600003681B0A28BF41F08001692938F0D48651
:10027000642938F0D186752938F0CE866F2939F097
:100280005483782938F02F87E92939F0EF82E4295F
:1002900039F0EC82F52939F0E982EF2939F0518300
:1002A000F82938F02E870368DB0928BF41F0800168
:1002B000632939F05E82732939F06382E32939F0CA
:1002C0008D87F32939F09287002070471FB53CF0E5
:1002D00056F93AF045F80400002000213BF0A2FA5C
:1002E000401C6060002000213BF0B2FAE0601FBDBE
:1002F00010B510BD3AF00FF81146FFF7E7FF00F018
:100300008EFB3AF0F1F803B4FFF7F2FF03BC08F0FC
:1003100047FD00000FB41CB501A80023009005ACF8
:100320001A461946E44835F05BFE2146049838F039
:10033000FBFD01AA0021E04835F0A9FF1CBC5DF8D7
:1003400014FB0EB5DDA0FFF7E5FF40F6B8342046FC
:1003500008F0FAFC02AB01AA6946DF4837F0DFFC7F
:100360000199009A642048438B18B0FBF3F3DBA09B
:10037000FFF7D0FF02AB01AA6946E34837F0CFFC94
:100380000199009A642048438B18B0FBF3F3DFA077
:10039000FFF7C0FF02AB01AA6946E84837F0BFFC8F
:1003A0000199009A642048438B18B0FBF3F3E4A052
:1003B000FFF7B0FF02AB01AA6946EE4837F0AFFC89
:1003C0000199009A642048438B18B0FBF3F3EAA02C
:1003D000FFF7A0FF02AB01AA6946F44837F09FFC83
:1003E0000199009A642048438B18B0FBF3F3F0A006
:1003F000FFF790FF02AB01AA6946FA4837F08FFC7D
:100400000199009A642048438B18B0FBF3F3F6A0DF
:10041000FFF780FF9BE788B008F025FB4FF4FA74E4
:1004200005E0FEA0FFF776FF204608F08DFC07F000
:100430006BFA0028F5D1FEA0FFF76CFFDFF80494FB
:10044000DFF804A44FF4007804AA06A905A807F071
:10045000A9FAF0B904983CF021F806460F46069830
:100460003CF01CF804460D4605983CF017F88DE862
:10047000F00041EC100BF5A053EC102BFFF74AFFF6
:10048000F9490498884200DAF8494146484608F09C
:1004900092FF0821504608F078FF18B109E01420B7
:1004A00008F052FC07F030FA0028F8D1F0A0FFF76E
:1004B00031FF4FF47A7008F047FCC5E788B014218B
:1004C00002A839F035F8EEA0FFF724FFDFF8CC835F
:1004D000DFF8CCB3DFF8CC934FF00A0A0026F24CD9
:1004E0002068B0B101A9012009F067FF07A9012028
:1004F00009F0DBFF9DF8060000909DF805309DF89F
:100500000420EAA102A838F021FD02A832F000FB85
:100510002660D8F80000E0B1002401275D46C5F848
:10052000A462C5F8A872502008F00EFCC5F8A862B5
:10053000C5F8A472502008F007FC641C0A2CEEDBFE
:10054000C5F8A472C5F8A872502008F0FDFBC8F8E1
:100550000060DB4D286800287ED0DAA1DB4838F047
:10056000B9FE002859D0DAA1D84838F0ADFED8A19C
:10057000002038F0A9FE38F099FEA0F5FA60C0B26C
:100580005446B0FBF4F10AFB1101B0FBF4F001EBAF
:10059000001089F800008DF81F004F46CCA1002004
:1005A00038F092FE38F082FEC0B2B0FBF4F104FBEA
:1005B0001101B0FBF4F001EB001038708DF81D0054
:1005C000C3A1002038F080FE38F070FEC0B2B0FB4E
:1005D000F4F104FB1101B0FBF4F001EB00103870F2
:1005E0008DF81E00BAA1002038F06EFE38F05EFED5
:1005F000C0B2B0FBF4F104FB1101B0FBF4F001EB6D
:10060000001038708DF81C0007A9012009F0FFFECA
:10061000B0A008F0C7FCB3A078E1B6A1AB4838F0B1
:1006200059FE002818D0AAA1A84838F04DFEA8A16C
:10063000002038F049FE38F039FEC0B25446B0FB15
:10064000F4F10AFB1101B0FBF4F001EB0010C0B2B1
:100650004F4689F8000000E05AE10C2803D94021F8
:100660008DF8071001E08DF807608DF8040098A15F
:10067000002038F029FE38F019FEC0B2B0FBF4F1CA
:1006800004FB1101B0FBF4F001EB001038708DF8A1
:1006900005008FA1002038F017FE38F007FEC0B229
:1006A000B0FBF4F104FB1101B0FBF4F001EB00101E
:1006B00038708DF8060021E1284100206170705FDC
:1006C0007461736B5F737461206973206372656119
:1006D0007465206F6B0D0A00380400207461736B21
:1006E0003120202073746B5B757365642F667265AF
:1006F000653A25642F25642075736167653A256422
:1007000025255D0D0A000000FC1400205461736B68
:10071000325F54434220202073746B5B75736564B1
:100720002F667265653A25642F25642075736167AD
:10073000653A256425255D0D0A0000008426002009
:100740005461736B5F44687431315F54434220736A
:10075000746B5B757365642F667265653A25642FEB
:1007600025642075736167653A256425255D0D0A4A
:1007700000000000482F00205461736B5F52544307
:100780005F5443422020202073746B5B7573656453
:100790002F667265653A25642F256420757361673D
:1007A000653A256425255D0D0A000000C01D002066
:1007B0005461736B5F4D50555F544342202020734A
:1007C000746B5B757365642F667265653A25642F7B
:1007D00025642075736167653A256425255D0D0ADA
:1007E000000000000C3800206170705F7461736B52
:1007F0005F73746120202073746B5B757365642F65
:10080000667265653A25642F256420757361676596
:100810003A256425255D0D0A000000004D5055362F
:10082000303530204552524F52200D0A0000000052
:100830007461736B5F6D7075206372656174650DB3
:100840000A00000000140240001002407069746346
:10085000683D25662C726F6C6C3D25662C7961773E
:100860003D25660D0A0000000000B4420000B4C23D
:100870004D5055203630353020494E49540D0A0030
:100880006170705F7461736B5F7274632069732051
:10089000637265617465206F6B0D0A00680000204B
:1008A00000804242000000206C0000202530327899
:1008B0003A253032783A253032780D0A00000000AF
:1008C000B40000204441544500000000F4410020E1
:1008D0002D0000006461746520736574206F6B0DDA
:1008E0000A0000004441544520534554204F4B20FA
:1008F0000D0A000054494D450000000001A90120E7
:1009000009F00BFDA1A008F04DFBA4A038F012FBEC
:100910002E604FF4FA7008F017FAE0E58AB0002074
:1009200002900390A1A0FFF7F5FC4FF4FA6402A82F
:1009300005F001FB9DF809109DF80800CDE90001C4
:100940009DF80B309DF80A20A0A104A838F0FEFA0B
:100950009DF808209DF80A1004A832F0C0F820463F
:1009600008F0F2F9E3E79FA0FFF7D4FC0026A14CC2
:1009700035464FF47A77A0A008F02AFB384608F0F5
:10098000E3F9A0A008F024FB384608F0DDF9206860
:100990000028F0D09EA1A04838F09CFC58B19FA13F
:1009A0009D4838F091FC9DA1002038F08DFC38F076
:1009B0007DFCC6B20FE09AA1974838F08BFC50B18D
:1009C00096A1954838F080FC94A1002038F07CFC7A
:1009D00038F06CFCC5B22946304632F060F8002091
:1009E000206020218C4838F081FDC4E71CB532F02E
:1009F000A6FA8DA0FFF78EFC01AC00231A4619461B
:100A00009048009435F0ECFA27F002FF01AA00218B
:100A10008C4835F03CFC052008F096F9EDE78AB0EB
:100A20004FF4A06008F09CFB08F049F94FF4E13066
:100A300008F0C1F94FF41654204608F012FA204687
:100A400008F061FA00F008FA03F060FB05F07FFBA4
:100A500005F04CFA0CF0D3FC0AF029F90AF069F918
:100A600009A833F028FE00240326CDE9064609AD87
:100A700075494FF400783327089505944FF006091F
:100A80002346AFF2970201A8CDF80090049480E8C5
:100A900082016D486DA1C43836F093FBCDE906465E
:100AA0006C49089505940023AFF2451201A8CDF8D2
:100AB0000090049480E88201664867A1C43836F04B
:100AC00080FBCDE906466649089505944FF0070975
:100AD0000023AFF2B71201A8CDF80090049480E88B
:100AE00082015F485FA1C43836F06BFBCDE9064652
:100AF0005F49089505940023AFF23F6201A8CDF845
:100B00000090049480E8820159485AA1C43836F014
:100B100058FBCDE906465A49089505940023AFF2E3
:100B2000097201A8CDF80090049480E8820154482D
:100B300054A1C43836F045FBCDE9064654494FF47C
:100B40008070089505940023AFF60902CDF8009057
:100B5000CDE90117CDE903044D484EA1C43836F064
:100B600030FB09A833F002FF09AA4EA1354835F041
:100B7000F6F8344809AA4DA12C3035F0F0F8314888
:100B800009AA4EA1583035F0EAF8FEE774696D65A0
:100B900020736574206F6B0D0A00000054494D45A9
:100BA00020534554204F4B200D0A00006170705FA8
:100BB0007461736B5F646874313120697320637290
:100BC00065617465206F6B0D0A000000543A253092
:100BD00032642E25642C483A253032642E25640D6B
:100BE0000A0000007461736B322063726561746582
:100BF0000D0A0000B800002041542B4845415254D2
:100C00000D0A000041542B53504F320D0A000000D2
:100C10002B48454152540000144200203D00000082
:100C20002B53504F320000006170705F7461736B22
:100C30005F3120697320637265617465206F6B0D8D
:100C40000A000000D0400020FC0400205461736BB7
:100C500031000000C01500205461736B32000000A9
:100C6000482700207461736B5F6468743131000041
:100C70000C3000207461736B5F72746300000000BD
:100C8000841E00205461736B5F6D7075000000005E
:100C9000D03800206170705F7461736B5F73746132
:100CA00000000000675F6C766D757800675F6C769A
:100CB0006765745F6461746100000000675F6D7553
:100CC0007465785F7072696E746600007047FEE745
:100CD000FEE7FEE7FEE77047704700000CB5002214
:100CE000544900920192086840F4803008604FF443
:100CF000A043086800F4003001900098401C009068
:100D0000019810B900989842F3D10868800334D54F
:100D10000120019047484030026842F08052026052
:100D20004548026842F44042026042480830026886
:100D30000260026842F400420260026842F4A0527B
:100D40000260031F3D4A1A600A6842F080720A601E
:100D50000A689201FCD53A4940F205720A600168BE
:100D600021F003010160016841F0020101600168A6
:100D7000C1F381010229FAD10CBD01920CBD3148A9
:100D800010B5016841F4700101602A48016841F022
:100D900001010160274A00210832116002682A4BD4
:100DA0001A400260031D294A1A60026822F4802258
:100DB000026020480C300160FFF790FF21494FF09E
:100DC00000608039086010BD70B51A4D083528687C
:100DD0001F4B204910F00C0004D05E10042803D0F3
:100DE000082803D00B601BE00E6019E0114A121DA9
:100DF0001068C0F38054106800F03F0014B1B6FBD7
:100E0000F0F001E0B3FBF0F013681268C3F388134D
:100E10005843C2F30142521C5200B0FBF2F008608A
:100E200028680C4AC0F30310121D105C0A68C24007
:100E30000A6070BD0038024000700040085440074E
:100E4000003C024088ED00E0FFFFF6FE1030002479
:100E50000024F400040000207CB50121202008F0CB
:100E60006AFE01208DF8040000228DF8062003217F
:100E70008DF80510074D4FF4C0648DF807000094FD
:100E80006946284608F030FA2146284608F091FACB
:100E90007CBD00000014024001B5BDF80000ADF8B3
:100EA0000000BDF800004FF0D841A1F87E0008BD59
:100EB00001B5BDF80000ADF80000BDF800004FF02E
:100EC000D841A1F8800008BD08B54FF0D840B0F86F
:100ED0008000ADF80000BDF8000008BD4FF0D8421A
:100EE00022F87E0F5180704710B5FFF7D5FF05201F
:100EF00007F00BFFBDE81040E6E7FE484FF0D84191
:100F00000089A1F87E0070474FF0D841A1F8800019
:100F10007047C0F34511C20AC00200EB41101044F3
:100F200080B27047401EC0B2FCD27047F0B5F14DA0
:100F30000C460246070AA9882846260A4089A1F5D8
:100F4000C853633B15D0A1F5AA43103B4AD0FFF725
:100F5000A3FF3846FFF7ACFFD0B2FFF7A9FFA8897F
:100F6000FFF79AFF3046FFF7A3FFE0B2BDE8F0407D
:100F70009EE7A97929B3FFF78FFF3846FFF798FF5F
:100F8000D0B2FFF795FF2888401EC0F30F20FFF76F
:100F90008FFF2878401EC0B2FFF78AFFA889FFF7AD
:100FA0007BFF3046FFF784FFE0B2FFF781FF6888E0
:100FB000401EC0F30F20FFF77BFFA878401EC0B291
:100FC000D4E72988891A491E8AB2FFF765FF0020F5
:100FD000FFF76EFF0020FFF76BFF100AFFF768FFB7
:100FE000D0B2D9E7FFF758FF3846FFF761FF6889AD
:100FF000401C80B2FFF750FFD0B2FFF759FFA8891D
:10100000FFF74AFF3046FFF753FFA889401C80B224
:10101000FFF742FFA9E710B5B64C2288824202D9F9
:1010200062888A4201D8002010BDFFF77FFFA088A8
:10103000A0F5AA4110391BD02E20FFF72DFFFFF796
:1010400043FFA188A1F5C852633AEDD0FFF73CFFFA
:101050000146FFF739FFCAB24FF6FF7303EA0222D7
:101060006FF30A01920A41EA421141EAD02010BD11
:101070004FF43850E1E79F488088A0F5AA41103925
:1010800001D0292008E74FF42450FBE799488088D5
:10109000A0F5AA41103901D02820FDE64FF42050D8
:1010A000FBE770B5934C00232146A279898841F66D
:1010B0006315012A01D01AB11BE0A94202D118E040
:1010C000A94216D1082814D2DFE800F00406080A65
:1010D0000C0E101206200CE007200AE0042008E0A5
:1010E000052006E0012004E0002002E0032000E0EB
:1010F0000220082812D2DFE800F0110406080A0CCA
:101100000E1080230AE0402308E0C02306E02023DD
:1011100004E0602302E0A02300E0E02345F2105643
:10112000B14202D14FF4585000E03620A1F51342ED
:10113000413A03D0A1F5EE42893A01D143F00803C8
:101140001946FFF7CBFEA288AA420ED0980606D514
:1011500020886188884208D22180608005E021884B
:101160006088814201D9208061806089B24240D18B
:10117000FFF792FE0020FFF79BFE6089401C80B2C3
:10118000FFF78AFE0020FFF793FE6089801C80B283
:10119000FFF782FE2088401EC0F30F20FFF788FE75
:1011A0006089C01C80B2FFF777FE2078401EC0B275
:1011B000FFF77EFEA089FFF76FFE0020FFF778FEA5
:1011C000A089401C80B2FFF767FE0020FFF770FE89
:1011D000A089801C80B2FFF75FFE6088401EC0F3CC
:1011E0000F20FFF765FEA089C01C80B2FFF754FEF8
:1011F00021E0FFF751FE0020FFF75AFE0020FFF725
:1012000057FE2088401EC0F30F20FFF751FE2078C4
:10121000401EC0B2FFF74CFEA089FFF73DFE002044
:10122000FFF746FE0020FFF743FE6088401EC0F334
:101230000F20FFF73DFEA078BDE87040401EC0B211
:1012400036E600B5FFF772FEFFF757FE2A484FF06B
:10125000D8410088A1F8800000BDF0B5254E0D46AC
:101260000446070AB1883046A1F5AA4340894FEAEF
:10127000152C103B0FD0A1F5C853633B24D0FFF7CA
:101280000BFE3846FFF714FEE0B2FFF711FEB089FF
:10129000FFF702FE3BE0FFF7FFFD3846FFF708FED1
:1012A0007089401C80B2FFF7F7FDE0B2FFF700FE47
:1012B000B089FFF7F1FD6046FFF7FAFDB089401CE9
:1012C00080B2FFF7E9FD25E0B17919B93188091B32
:1012D000491E8CB2FFF7E0FD270A3846FFF7E8FD0C
:1012E000E0B2FFF7E5FD3846FFF7E2FDE0B2FFF7B9
:1012F000DFFD03E05441002018000020B089FFF713
:10130000CBFD6046FFF7D4FDE8B2FFF7D1FD6046A4
:10131000FFF7CEFDE8B2FFF7CBFD4FF0D8403189A3
:1013200020F87E1F4280F0BD10B50246BE20FFF7B8
:10133000B3FD0520FFF7BCFD10463AF069FD9FEDB7
:10134000FE1B53EC112B3AF0B3FD3AF01DFD80B2B9
:10135000FFF7AEFD0120FFF7ABFDFF20FFF7A8FD73
:101360000020FFF7A5FDBDE810400020A0E52DE915
:10137000F04FF34B2C27194698712B2589884FF491
:10138000305A4FF4285B4FF4487441F6631E2A2606
:101390004FF0F00845F210594FF4A07C4FF4F07272
:1013A000C0B1A3F800C0A3F80280494532D1A3F828
:1013B00008A0A3F80AB0280298811C805A80A1F5E1
:1013C000A640103802D11A80A3F802C0BDE8F04F41
:1013D000002066E6A3F80080A3F802C0494507D1C3
:1013E000A3F808A0A3F80AB04FF42C50988104E0A9
:1013F00071451F8104D15D819E811A805C8001E06E
:101400005E819D81A1F5A6401038DFD1A3F800C010
:101410005A80DBE71F815E8171459D81CDD0CEE78B
:101420002DE9F047054699461044C54E401E01EB94
:1014300009030C461FFA80FCB18830465B1E4089C8
:10144000A1F5C8589FB24FEA142AB8F1630825D114
:1014500096F80680B8F1010F20D031889FB2891A22
:10146000491B8DB2FFF718FD280AFFF721FDE8B2EE
:10147000FFF71EFD2A44521EC2F30F20FFF718FD8E
:10148000D0B2FFF715FDB089FFF706FD5046FFF714
:101490000FFDE0B2FFF70CFD380A27E004EB090866
:1014A000A8F101082A44C8F30729521EC2F30728ED
:1014B0002A0AA1F5AA43103B1ED0FFF7EDFC104607
:1014C000FFF7F6FCE8B2FFF7F3FC4046FFF7F0FC4D
:1014D0000CF0FF00FFF7ECFCB089FFF7DDFC504695
:1014E000FFF7E6FCE0B2FFF7E3FC4846FFF7E0FC5D
:1014F000F8B2BDE8F047DBE4FFF7CEFC1046FFF79B
:10150000D7FC7089401C80B2FFF7C6FCE8B2FFF739
:10151000CFFC7089801C80B2FFF7BEFC4046FFF70D
:10152000C7FC7089C01C80B2FFF7B6FC0CF0FF004E
:10153000FFF7BEFCB089FFF7AFFC5046FFF7B8FCE1
:10154000B089401C80B2FFF7A7FCE0B2FFF7B0FC07
:10155000B089801C80B2FFF79FFC4846FFF7A8FCCB
:10156000B089C01C80B2FFF797FCC1E770B5744921
:101570000646002408884D88214645432046FFF74B
:10158000D5FCFFF7BAFC4FF0D84002E0A0F880602D
:10159000641CAC42FAD370BD2DE9F04FA1B0002419
:1015A00001217A201F9408F0C6FA0121084608F0AC
:1015B000D6FA01258DF804504FF400408DF806400E
:1015C000022600908DF805608DF8075069465D4849
:1015D00007F08AFE8DF804604CF233708DF80640F7
:1015E0000327DFF8648100908DF805708DF80750AF
:1015F0006946404607F078FE8DF804604FF680702B
:101600008DF80640DFF8449100908DF805708DF854
:1016100007506946484607F067FE8DF804602803C6
:101620008DF8064000908DF805708DF807506946DA
:10163000474807F059FE8DF8046028038DF80640EE
:1016400000908DF805708DF807506946414807F005
:101650004BFE0C220021404607F0BAFE0C2201216D
:10166000404607F0B5FE0C220421404607F0B0FECC
:101670000C220521404607F0ABFE0C220821404613
:1016800007F0A6FE0C220921404607F0A1FE0C221D
:101690000A21404607F09CFE0C220E21404607F02E
:1016A00097FE0C220F21404607F092FE0C220721E4
:1016B000484607F08DFE0C220821484607F088FEB8
:1016C0000C220921484607F083FE0C220A214846D5
:1016D00007F07EFE0C220B21484607F079FE0C2213
:1016E0001146484607F074FE0C220D21484607F0CB
:1016F0006FFE0C220E21484607F06AFE0C220F21D5
:10170000484607F065FE0C221146114807F060FEBE
:101710000C2211460F4807F05BFE0F20CDE91104A3
:101720003C20CDE91304159409201694CDE9174007
:101730000820CDE919400FE06666666666660440DB
:101740005441002000040240000C024000100240FE
:1017500000140240001802401B941C940620CDE99E
:1017600002041D941E941020CDE90440069400024A
:10177000CDE90A40089407948000CDE90C40099413
:1017800011A8CDE90E4018A8109002A807F059FE44
:101790000121062007F0CEFE322007F0D5FAD32033
:1017A000FFF77AFBFFF790FBFE4CA080FFF78CFB66
:1017B00021468880FFF788FB4FF6FF7101EA002081
:1017C00021468880FFF780FB214645F21037898843
:1017D00045F210560843214641F663188880A0F56B
:1017E000134147F289754FF4704A4FF2010B4139AA
:1017F00076D00420FFF750FBFFF766FBA080FFF7D1
:1018000063FBA080FFF760FB4FF6FF7C0CEA002033
:10181000A080FFF759FBA1880843A0F50541A080EF
:1018200052397DD0A8425BD0D420FFF735FBFFF7BB
:101830004BFBA080FFF748FBA080FFF745FB0CEABD
:101840000020A080FFF740FBA1880843A080B84299
:1018500046D055215046FFF741FBAA215846FFF7D5
:101860003DFB52214FF20200FFF738FB08214FF2F7
:101870000300FFF733FB01214FF20400FFF72EFBBB
:101880004FF44540FFF708FBFFF71EFB0CEA002072
:10189000A080E1464CF20150FFF7FEFAFFF714FB7F
:1018A000A1880843A080052007F04EFAA088B0F573
:1018B000004F45D0B04213D0A120FFF7EDFAFFF75B
:1018C00003FBA080FFF700FB09EA0020A080FFF7E0
:1018D000FBFAA1880843A0F5AE41A08061392CD065
:1018E000A088A0F51341413907D0A84205D0B842DD
:1018F00003D0B04201D0404528D14FF02040D0F86D
:101900001C1121F00F01C0F81C11D0F81C1121F49A
:101910007061C0F81C11D0F81C1141F0030100E007
:1019200009E0C0F81C11A188A942D0F81C1109D106
:1019300041F4407108E0A580DFE7A4F80480DCE70B
:10194000A680DAE741F40071C0F81C11A18896A0C6
:1019500037F0F0FAA088A0F5134141397ED0A842B3
:101960007DD11120FFF798FA782007F0EDF93620A5
:10197000FFF792FA0020FFF79BFA3A20FFF78CFA64
:101980000520FFF795FAB220FFF786FA0C20FFF743
:101990008FFA0C20FFF78CFA0020FFF789FA33202A
:1019A000FFF786FA3320FFF783FAB720FFF774FAC0
:1019B0003520FFF77DFABB20FFF76EFA3220FFF7E4
:1019C00077FAC020FFF768FA0C20FFF771FAC220FF
:1019D000FFF762FA0120FFF76BFAC320FFF75CFA0A
:1019E0001020FFF765FAC420FFF756FA2020FFF712
:1019F0005FFAC620FFF750FA0F20FFF759FAD02000
:101A0000FFF74AFAA420FFF753FAA120FFF750FA94
:101A1000E020FFF741FAD020FFF74AFA0020FFF755
:101A200047FA0220FFF744FA0720FFF741FA0A209D
:101A3000FFF73EFA2820FFF73BFA3220FFF738FA8B
:101A40004420FFF735FA4220FFF732FA0620FFF76D
:101A50002FFA0E20FFF72CFA122001E056E072E177
:101A6000FFF726FA1420FFF723FA1720FFF720FAD2
:101A7000E120FFF711FAD020FFF71AFA0020FFF754
:101A800017FA0220FFF714FA0720FFF711FA0A20CD
:101A9000FFF70EFA2820FFF70BFA3120FFF708FABC
:101AA0005420FFF705FA4720FFF702FA0E20FFF750
:101AB000FFF91C20FFF7FCF91720FFF7F9F91B20AD
:101AC000FFF7F6F91E20FFF7F3F92A20FFF7E4F9F4
:101AD0000020FFF7EDF90020FFF7EAF90020FFF7FB
:101AE000E7F9EF20FFF7E4F92B20FFF7D5F9002005
:101AF000FFF7DEF90020FFF7DBF90120FFF7D8F947
:101B00003F20FFF7D5F9292002F017B8CF20FFF7C3
:101B1000C3F90020FFF7CCF9C120FFF7C9F9302045
:101B2000FFF7C6F9ED20FFF7B7F96420FFF7C0F91A
:101B30000320FFF7BDF91220FFF7BAF98120FFF764
:101B4000B7F9E820FFF7A8F98520FFF7B1F91020D1
:101B5000FFF7AEF97A20FFF7ABF9CB20FFF79CF93E
:101B60003920FFF7A5F92C20FFF7A2F90020FFF795
:101B70009FF93420FFF79CF90220FFF799F9F7202D
:101B8000FFF78AF92020FFF793F9EA20FFF784F99D
:101B90000020FFF78DF90020FFF78AF9C020FFF73A
:101BA0007BF909E054410020204C43442049443A49
:101BB00025780D0A000000001B20FFF779F9C120ED
:101BC000FFF76AF90120FFF773F9C520FFF764F901
:101BD0003020FFF76DF93020FFF76AF9C720FFF7D3
:101BE0005BF9B720FFF764F93620FFF755F9482075
:101BF000FFF75EF93A20FFF74FF95520FFF758F944
:101C0000B120FFF749F90020FFF752F91A20FFF73A
:101C10004FF9B620FFF740F90A20FFF749F9A22053
:101C2000FFF746F9F220FFF737F90020FFF740F9F8
:101C30002620FFF731F90120FFF73AF9E020FFF7FE
:101C40002BF90F20FFF734F92A20FFF731F928206C
:101C5000FFF72EF90820FFF72BF90E20FFF728F9E0
:101C60000820FFF725F95420FFF722F9A920FFF7F4
:101C70001FF94320FFF71CF90A20FFF719F90F207D
:101C8000FFF716F90020FFF713F90020FFF710F90E
:101C90000020FFF70DF90020FFF70AF9E120FFF718
:101CA000FBF80020FFF704F91520FFF701F91720D2
:101CB000FFF7FEF80720FFF7FBF81120FFF7F8F811
:101CC0000620FFF7F5F82B20FFF7F2F85620FFF774
:101CD000EFF83C20FFF7ECF80520FFF7E9F81020BB
:101CE000FFF7E6F80F20FFF7E3F83F20FFF7E0F8F3
:101CF0003F20FFF7DDF80F20FFF7DAF82B20FFF782
:101D0000CBF80020FFF7D4F80020FFF7D1F801202E
:101D1000FFF7CEF83F20FFF7CBF82A20FFF7BCF8FB
:101D20000020FFF7C5F80020FFF7C2F80020FFF7FA
:101D3000BFF8EF20FFF7BCF81120FFF7ADF87820CF
:101D400007F002F8DFE6B8427ED1ED20FFF7A4F8F5
:101D50000120FFF7ADF8FE20FFF7AAF8EE20FFF70D
:101D60009BF8DE20FFF7A4F82120FFF7A1F8F1206F
:101D7000FFF792F80120FFF79BF8DF20FFF78CF8C0
:101D80001020FFF795F8C420FFF786F88F20FFF7A3
:101D90008FF8C620FFF780F80020FFF789F8E220CF
:101DA000FFF786F8E220FFF783F8E220FFF780F8DC
:101DB000BF20FFF771F8AA20FFF77AF8B020FFF7ED
:101DC0006BF80D20FFF774F80020FFF771F80D2075
:101DD000FFF76EF80020FFF76BF81120FFF768F8A7
:101DE0000020FFF765F81920FFF762F80020FFF7E1
:101DF0005FF82120FFF75CF80020FFF759F82D204D
:101E0000FFF756F80020FFF753F83D20FFF750F892
:101E10000020FFF74DF85D20FFF74AF80020FFF79C
:101E200047F85D20FFF744F80020FFF741F8B120A4
:101E3000FFF732F88020FFF73BF80020FFF738F873
:101E40008B20FFF735F800E0FDE30020FFF730F8C6
:101E50009620FFF72DF80020FFF72AF8B220FFF7B1
:101E60001BF80020FFF724F80020FFF721F80220DC
:101E7000FFF71EF80020FFF71BF80320FFF718F804
:101E80000020FFF715F8B320FFF706F80020FFF752
:101E90000FF80020FFF70CF80020FFF709F80020EA
:101EA000FFF706F80020FFF703F80020FFF700F81F
:101EB0000020FEF7FDFF0020FEF7FAFF0020FEF7EE
:101EC000F7FF0020FEF7F4FF0020FEF7F1FF0020EF
:101ED000FEF7EEFF0020FEF7EBFF0020FEF7E8FF25
:101EE0000020FEF7E5FF0020FEF7E2FF0020FEF7EE
:101EF000DFFF0020FEF7DCFF0020FEF7D9FF002007
:101F0000FEF7D6FF0020FEF7D3FF0020FEF7D0FF3C
:101F10000020FEF7CDFF0020FEF7CAFFB420FEF739
:101F2000BBFF8B20FEF7C4FF0020FEF7C1FF962009
:101F3000FEF7BEFF0020FEF7BBFFA120FEF7B8FFB3
:101F40000020FEF7B5FFB520FEF7A6FF0220FEF742
:101F5000AFFF0020FEF7ACFF0320FEF7A9FF002033
:101F6000FEF7A6FF0420FEF7A3FF0020FEF7A0FF68
:101F7000B620FEF791FF0020FEF79AFF0020FEF743
:101F800097FFB720FEF788FF0020FEF791FF0020A3
:101F9000FEF78EFF3F20FEF78BFF0020FEF788FF45
:101FA0005E20FEF785FF0020FEF782FF6420FEF72B
:101FB0007FFF0020FEF77CFF8C20FEF779FF0020DA
:101FC000FEF776FFAC20FEF773FF0020FEF770FFF0
:101FD000DC20FEF76DFF0020FEF76AFF7020FEF7A1
:101FE00067FF0020FEF764FF9020FEF761FF0020EE
:101FF000FEF75EFFEB20FEF75BFF0020FEF758FFC9
:10200000DC20FEF755FF0020FEF752FFB820FEF758
:1020100043FF0020FEF74CFF0020FEF749FF0020A1
:10202000FEF746FF0020FEF743FF0020FEF740FFCB
:102030000020FEF73DFF0020FEF73AFF0020FEF7EC
:1020400037FFBA20FEF728FF2420FEF731FF0020DB
:10205000FEF72EFF0020FEF72BFF0020FEF728FFE3
:10206000C120FEF719FF2020FEF722FF0020FEF717
:102070001FFF5420FEF71CFF0020FEF719FFFF2072
:10208000FEF716FF0020FEF713FFC220FEF704FF45
:102090000A20FEF70DFF0020FEF70AFF0420FEF7DE
:1020A00007FF0020FEF704FFC320FEF7F5FE3C20EB
:1020B000FEF7FEFE0020FEF7FBFE3A20FEF7F8FEDC
:1020C0000020FEF7F5FE3920FEF7F2FE0020FEF7B5
:1020D000EFFE3720FEF7ECFE0020FEF7E9FE3C2085
:1020E000FEF7E6FE0020FEF7E3FE3620FEF7E0FEF8
:1020F0000020FEF7DDFE3220FEF7DAFE0020FEF7BC
:10210000D7FE2F20FEF7D4FE0020FEF7D1FE2C20B4
:10211000FEF7CEFE0020FEF7CBFE2920FEF7C8FE1C
:102120000020FEF7C5FE2620FEF7C2FE0020FEF7C7
:10213000BFFE2420FEF7BCFE0020FEF7B9FE2420DF
:10214000FEF7B6FE0020FEF7B3FE2320FEF7B0FE3A
:102150000020FEF7ADFE3C20FEF7AAFE0020FEF7B1
:10216000A7FE3620FEF7A4FE0020FEF7A1FE3220D7
:10217000FEF79EFE0020FEF79BFE2F20FEF798FE46
:102180000020FEF795FE2C20FEF792FE0020FEF7C1
:102190008FFE2920FEF78CFE0020FEF789FE262008
:1021A000FEF786FE0020FEF783FE2420FEF780FE69
:1021B0000020FEF77DFE2420FEF77AFE0020FEF7C9
:1021C00077FE2320FEF774FE0020FEF771FEC42088
:1021D000FEF762FE6220FEF76BFE0020FEF768FE4F
:1021E0000520FEF765FE0020FEF762FE8420FEF764
:1021F0005FFE0020FEF75CFEF020FEF759FE002097
:10220000FEF756FE1820FEF753FE0020FEF750FEA4
:10221000A420FEF74DFE0020FEF74AFE1820FEF730
:1022200047FE0020FEF744FE5020FEF741FE00204E
:10223000FEF73EFE0C20FEF73BFE0020FEF738FEC8
:102240001720FEF735FE0020FEF732FE9520FEF740
:102250002FFE0020FEF72CFEF320FEF729FE0020C3
:10226000FEF726FEE620FEF723FE0020FEF720FE06
:10227000C520FEF711FE3220FEF71AFE0020FEF701
:1022800017FE4420FEF714FE0020FEF711FE652025
:10229000FEF70EFE0020FEF70BFE7620FEF708FE8E
:1022A0000020FEF705FE8820FEF702FE0020FEF764
:1022B000FFFDC620FEF7F0FD2020FEF7F9FD00200F
:1022C000FEF7F6FD1720FEF7F3FD0020FEF7F0FD08
:1022D0000120FEF7EDFD0020FEF7EAFDC720FEF726
:1022E000DBFD0020FEF7E4FD0020FEF7E1FD00200D
:1022F000FEF7DEFD0020FEF7DBFDC820FEF7CCFD7B
:102300000020FEF7D5FD0020FEF7D2FD0020FEF7ED
:10231000CFFD0020FEF7CCFDC920FEF7BDFD00205B
:10232000FEF7C6FD0020FEF7C3FD0020FEF7C0FD4E
:102330000020FEF7BDFD0020FEF7BAFD0020FEF7ED
:10234000B7FD0020FEF7B4FD0020FEF7B1FD002030
:10235000FEF7AEFD0020FEF7ABFD0020FEF7A8FD66
:102360000020FEF7A5FD0020FEF7A2FD0020FEF7ED
:102370009FFD0020FEF79CFD0020FEF799FDE02068
:10238000FEF78AFD1620FEF793FD0020FEF790FD74
:102390001C20FEF78DFD0020FEF78AFD2120FEF7B0
:1023A00087FD0020FEF784FD3620FEF781FD00202A
:1023B000FEF77EFD4620FEF77BFD0020FEF778FD50
:1023C0005220FEF775FD0020FEF772FD6420FEF737
:1023D0006FFD0020FEF76CFD7A20FEF769FD0020FE
:1023E000FEF766FD8B20FEF763FD0020FEF760FD23
:1023F0009920FEF75DFD0020FEF75AFDA820FEF7AC
:1024000057FD0020FEF754FDB920FEF751FD0020D6
:10241000FEF74EFDC420FEF74BFD0020FEF748FD01
:10242000CA20FEF745FD0020FEF742FDD220FEF750
:102430003FFD0020FEF73CFDD920FEF739FD0020CE
:10244000FEF736FDE020FEF733FD0020FEF730FDFD
:10245000F320FEF72DFD0020FEF72AFDE120FEF718
:102460001BFD1620FEF724FD0020FEF721FD1C2099
:10247000FEF71EFD0020FEF71BFD2220FEF718FDD3
:102480000020FEF715FD3620FEF712FD0020FEF7B6
:102490000FFD4520FEF70CFD0020FEF709FD522040
:1024A000FEF706FD0020FEF703FD6420FEF700FDA9
:1024B0000020FEF7FDFC7A20FEF7FAFC0020FEF774
:1024C000F7FC8B20FEF7F4FC0020FEF7F1FC9920CE
:1024D000FEF7EEFC0020FEF7EBFCA820FEF7E8FC80
:1024E0000020FEF7E5FCB920FEF7E2FC0020FEF735
:1024F000DFFCC420FEF7DCFC0020FEF7D9FCCA207C
:10250000FEF7D6FC0020FEF7D3FCD220FEF7D0FC6D
:102510000020FEF7CDFCD820FEF7CAFC0020FEF715
:10252000C7FCE020FEF7C4FC0020FEF7C1FCF3204E
:10253000FEF7BEFC0020FEF7BBFCE220FEF7ACFC81
:102540000520FEF7B5FC0020FEF7B2FC0B20FEF7DD
:10255000AFFC0020FEF7ACFC1B20FEF7A9FC00201E
:10256000FEF7A6FC3420FEF7A3FC0020FEF7A0FC3B
:102570004420FEF79DFC0020FEF79AFC4F20FEF75A
:1025800097FC0020FEF794FC6120FEF791FC0020F0
:10259000FEF78EFC7920FEF78BFC0020FEF788FC0E
:1025A0008820FEF785FC0020FEF782FC9720FEF7CE
:1025B0007FFC0020FEF77CFCA620FEF779FC0020C3
:1025C000FEF776FCB720FEF773FC0020FEF770FCE8
:1025D000C220FEF76DFC0020FEF76AFCC720FEF764
:1025E00067FC0020FEF764FCD120FEF761FC0020B0
:1025F000FEF75EFCD620FEF75BFC0020FEF758FCE1
:10260000DD20FEF755FC0020FEF752FCF320FEF71C
:102610004FFC0020FEF74CFCE320FEF73DFC0520BC
:10262000FEF746FC0020FEF743FC0A20FEF740FCC4
:102630000020FEF73DFC1C20FEF73AFC0020FEF7D0
:1026400037FC332000E0FAE2FEF732FC0020FEF710
:102650002FFC4420FEF72CFC0020FEF729FC502024
:10266000FEF726FC0020FEF723FC6220FEF720FC8C
:102670000020FEF71DFC7820FEF71AFC0020FEF774
:1026800017FC8820FEF714FC0020FEF711FC9720B1
:10269000FEF70EFC0020FEF70BFCA620FEF708FC60
:1026A0000020FEF705FCB720FEF702FC0020FEF735
:1026B000FFFBC220FEF7FCFB0020FEF7F9FBC72062
:1026C000FEF7F6FB0020FEF7F3FBD120FEF7F0FB50
:1026D0000020FEF7EDFBD520FEF7EAFB0020FEF719
:1026E000E7FBDD20FEF7E4FB0020FEF7E1FBF32033
:1026F000FEF7DEFB0020FEF7DBFBE420FEF7CCFB61
:102700000120FEF7D5FB0020FEF7D2FB0120FEF7EB
:10271000CFFB0020FEF7CCFB0220FEF7C9FB002018
:10272000FEF7C6FB2A20FEF7C3FB0020FEF7C0FB26
:102730003C20FEF7BDFB0020FEF7BAFB4B20FEF766
:10274000B7FB0020FEF7B4FB5D20FEF7B1FB0020D5
:10275000FEF7AEFB7420FEF7ABFB0020FEF7A8FBF4
:102760008420FEF7A5FB0020FEF7A2FB9320FEF7D6
:102770009FFB0020FEF79CFBA220FEF799FB0020A8
:10278000FEF796FBB320FEF793FB0020FEF790FBCD
:10279000BE20FEF78DFB0020FEF78AFBC420FEF76B
:1027A00087FB0020FEF784FBCD20FEF781FB002095
:1027B000FEF77EFBD320FEF77BFB0020FEF778FBC5
:1027C000DD20FEF775FB0020FEF772FBF320FEF71D
:1027D0006FFB0020FEF76CFBE520FEF75DFB0020A1
:1027E000FEF766FB0020FEF763FB0020FEF760FBB0
:1027F0000020FEF75DFB0220FEF75AFB0020FEF7EB
:1028000057FB2920FEF754FB0020FEF751FB3C202C
:10281000FEF74EFB0020FEF74BFB4B20FEF748FB7C
:102820000020FEF745FB5D20FEF742FB0020FEF78F
:102830003FFB7420FEF73CFB0020FEF739FB8420B1
:10284000FEF736FB0020FEF733FB9320FEF730FB4C
:102850000020FEF72DFBA220FEF72AFB0020FEF74A
:1028600027FBB320FEF724FB0020FEF721FBBE2050
:10287000FEF71EFB0020FEF71BFBC420FEF718FB33
:102880000020FEF715FBCD20FEF712FB0020FEF71F
:102890000FFBD320FEF70CFB0020FEF709FBDC202A
:1028A000FEF706FB0020FEF703FBF320FEF700FB1C
:1028B0000020FEF7FDFAE620FEF7EEFA1120FEF703
:1028C000F7FA0020FEF7F4FA3420FEF7F1FA0020C0
:1028D000FEF7EEFA5620FEF7EBFA0020FEF7E8FAD4
:1028E0007620FEF7E5FA0020FEF7E2FA7720FEF701
:1028F000DFFA0020FEF7DCFA6620FEF7D9FA0020A6
:10290000FEF7D6FA8820FEF7D3FA0020FEF7D0FAB9
:102910009920FEF7CDFA0020FEF7CAFABB20FEF799
:10292000C7FA0020FEF7C4FA9920FEF7C1FA00208A
:10293000FEF7BEFA6620FEF7BBFA0020FEF7B8FAF3
:102940005520FEF7B5FA0020FEF7B2FA5520FEF743
:10295000AFFA0020FEF7ACFA4520FEF7A9FA0020F6
:10296000FEF7A6FA4320FEF7A3FA0020FEF7A0FA2E
:102970004420FEF79DFA0020FEF79AFAE720FEF7C2
:102980008BFA3220FEF794FA0020FEF791FA5520D8
:10299000FEF78EFA0020FEF78BFA7620FEF788FA13
:1029A0000020FEF785FA6620FEF782FA0020FEF787
:1029B0007FFA6720FEF77CFA0020FEF779FA67209D
:1029C000FEF776FA0020FEF773FA8720FEF770FA1A
:1029D0000020FEF76DFA9920FEF76AFA0020FEF754
:1029E00067FABB20FEF764FA0020FEF761FA99202F
:1029F000FEF75EFA0020FEF75BFA7720FEF758FA42
:102A00000020FEF755FA4420FEF752FA0020FEF7A8
:102A10004FFA5620FEF74CFA0020FEF749FA232021
:102A2000FEF746FA0020FEF743FA3320FEF740FA9D
:102A30000020FEF73DFA4520FEF73AFA0020FEF7A7
:102A400037FAE820FEF728FA0020FEF731FA0020D6
:102A5000FEF72EFA9920FEF72BFA0020FEF728FA4F
:102A60008720FEF725FA0020FEF722FA8820FEF7DD
:102A70001FFA0020FEF71CFA7720FEF719FA002053
:102A8000FEF716FA6620FEF713FA0020FEF710FA9A
:102A90008820FEF70DFA0020FEF70AFAAA20FEF7BA
:102AA00007FA0020FEF704FABB20FEF701FA002027
:102AB000FEF7FEF99920FEF7FBF90020FEF7F8F982
:102AC0006620FEF7F5F90020FEF7F2F95520FEF733
:102AD000EFF90020FEF7ECF95520FEF7E9F90020A8
:102AE000FEF7E6F94420FEF7E3F90020FEF7E0F9EF
:102AF0004420FEF7DDF90020FEF7DAF95520FEF755
:102B0000D7F90020FEF7D4F9E920FEF7C5F9AA208D
:102B1000FEF7CEF90020FEF7CBF90020FEF7C8F94A
:102B20000020FEF7C5F90020FEF7B6F9AA20FEF74F
:102B3000BFF9CF20FEF7B0F90020FEF7B9F9002069
:102B4000FEF7B6F90020FEF7B3F90020FEF7B0F962
:102B50000020FEF7ADF90020FEF7AAF90020FEF7ED
:102B6000A7F90020FEF7A4F90020FEF7A1F9002044
:102B7000FEF79EF90020FEF79BF90020FEF798F97A
:102B80000020FEF795F90020FEF792F90020FEF7ED
:102B90008FF90020FEF78CF90020FEF789F9F0206C
:102BA000FEF77AF90020FEF783F95020FEF780F94E
:102BB0000020FEF77DF90020FEF77AF90020FEF7ED
:102BC00077F9F320FEF768F90020FEF771F9F92094
:102BD000FEF762F90620FEF76BF91020FEF768F9A0
:102BE0002920FEF765F90020FEF762F93A20FEF78A
:102BF00053F95520FEF75CF91120FEF74DF96420DA
:102C000006F0A2F82920FEF747F93520FEF744F92F
:102C10000020FEF74DF95120FEF73EF9FF20FEF7A8
:102C200047F95320FEF738F92C20FEF741F95520DB
:102C3000FEF732F98220FEF73BF92C20FDE3B0428B
:102C40007ED1552153465046FEF748F9AA215C46ED
:102C50005846FEF743F94FF2020552212846FEF787
:102C60003DF96E1C08213046FEF738F9AF1C0121F2
:102C70003846FEF733F90D214FF43040FEF72EF9B8
:102C80000D214BF20100FEF729F90D214BF2020054
:102C9000FEF724F94FF4364C34216046FEF71EF956
:102CA00034214BF20160FEF719F934214BF2026036
:102CB000FEF714F94FF431480D214046FEF70EF9A6
:102CC0004BF201190D214846FEF708F90D214BF290
:102CD0000210FEF703F94FF4374A34215046FEF74D
:102CE000FDF84BF2017B34215846FEF7F7F834210A
:102CF0004BF20270FEF7F2F800214FF43240FEF77B
:102D0000EDF800214BF20120FEF7E8F800214BF22C
:102D10000220FEF7E3F824214FF43840FEF7DEF8F6
:102D200024214BF60100FEF7D9F824214BF60200CE
:102D3000FEF7D4F801214FF43F40FEF7CFF800E052
:102D4000FEE30F214FF43340FEF7C8F80F214BF29A
:102D50000130FEF7C3F80F214BF20230FEF7BEF848
:102D600034214FF43940FEF7B9F834214BF6011005
:102D7000FEF7B4F834214BF60210FEF7AFF8082145
:102D80004FF43540FEF7AAF808214BF20150FEF748
:102D9000A5F808214BF20250FEF7A0F803214FF4EA
:102DA0004240FEF79BF824214FF43A40FEF796F894
:102DB00024214BF60120FEF791F824214BF6022046
:102DC000FEF78CF800214FF43C40FEF787F878219D
:102DD0004BF60140FEF782F800214BF60240FEF769
:102DE0007DF800214FF43D40FEF778F878214BF64E
:102DF0000150FEF773F800214BF60250FEF76EF813
:102E000000214FF43E40FEF769F864214BF6016063
:102E1000FEF764F800214FF45140FEF75FF83321CC
:102E20004DF20110FEF75AF800214DF20210FEF7A4
:102E300055F834214DF20310FEF750F800214DF201
:102E40000410FEF74BF83A214DF20510FEF746F854
:102E500000214DF20610FEF741F84A214DF207100D
:102E6000FEF73CF800214DF20810FEF737F85C2120
:102E70004DF20910FEF732F800214DF20A10FEF76C
:102E80002DF881214DF20B10FEF728F800214DF2AC
:102E90000C10FEF723F8A6214DF20D10FEF71EF8D8
:102EA00000214DF20E10FEF719F8E5214DF20F103A
:102EB000FEF714F801214DF21010FEF70FF8132160
:102EC0004DF21110FEF70AF801214DF21210FEF733
:102ED00005F854214DF21310FEF700F801214DF2D0
:102EE0001410FDF7FBFF82214DF21510FDF7F6FFE0
:102EF00001214DF21610FDF7F1FFCA214DF2171016
:102F0000FDF7ECFF02214DF21810FDF7E7FF00215D
:102F10004DF21910FDF7E2FF02214DF21A10FDF7F4
:102F2000DDFF01214DF21B10FDF7D8FF02214DF20C
:102F30001C10FDF7D3FF34214DF21D10FDF7CEFF1D
:102F400002214DF21E10FDF7C9FF67214DF21F103F
:102F5000FDF7C4FF02214DF22010FDF7BFFF8421D1
:102F60004DF22110FDF7BAFF02214DF22210FDF7BC
:102F7000B5FFA4214DF22310FDF7B0FF02214DF261
:102F80002410FDF7ABFFB7214DF22510FDF7A6FF8A
:102F900002214DF22610FDF7A1FFCF214DF227109F
:102FA000FDF79CFF02214DF22810FDF797FFDE216F
:102FB0004DF22910FDF792FF02214DF22A10FDF784
:102FC0008DFFF2214DF22B10FDF788FF02214DF20B
:102FD0002C10FDF783FFFE214DF22D10FDF77EFF33
:102FE00003214DF22E10FDF779FF10214DF22F1025
:102FF000FDF774FF03214DF23010FDF76FFF332111
:103000004DF23110FDF76AFF03214DF23210FDF74A
:1030100065FF6D214DF23310FDF760FF00214FF485
:103020005240FDF75BFF33214DF20120FDF756FFC3
:1030300000214DF20220FDF751FF34214DF2032013
:10304000FDF74CFF00214DF20420FDF747FF3A2128
:103050004DF20520FDF742FF00214DF20620FDF75D
:103060003DFF4A214DF20720FDF738FF00214DF2C8
:103070000820FDF733FF5C214DF20920FDF72EFFFC
:1030800000214DF20A20FDF729FF81214DF20B208E
:10309000FDF724FF00214DF20C20FDF71FFFA621B4
:1030A0004DF20D20FDF71AFF00214DF20E20FDF725
:1030B00015FFE5214DF20F20FDF710FF01214DF224
:1030C0001020FDF70BFF13214DF21120FDF706FF35
:1030D00001214DF21220FDF701FF54214DF2132082
:1030E000FDF7FCFE01214DF21420FDF7F7FE8221D1
:1030F0004DF21520FDF7F2FE01214DF21620FDF7ED
:10310000EDFECA214DF21720FDF7E8FE02214DF237
:103110001820FDF7E3FE00214DF21920FDF7DEFE39
:1031200002214DF21A20FDF7D9FE01214DF21B209C
:10313000FDF7D4FE02214DF21C20FDF7CFFE342115
:103140004DF21D20FDF7CAFE02214DF21E20FDF7B3
:10315000C5FE67214DF21F20FDF7C0FE02214DF292
:103160002020FDF7BBFE84214DF22120FDF7B6FEA5
:1031700002214DF22220FDF7B1FEA4214DF22320C1
:10318000FDF7ACFE02214DF22420FDF7A7FEB7218A
:103190004DF22520FDF7A2FE02214DF22620FDF77B
:1031A0009DFECF214DF22720FDF798FE02214DF222
:1031B0002820FDF793FEDE214DF22920FDF78EFE3B
:1031C00002214DF22A20FDF789FEF2214DF22B203B
:1031D000FDF784FE02214DF22C20FDF77FFEFE213B
:1031E0004DF22D20FDF77AFE03214DF22E20FDF742
:1031F00075FE10214DF22F20FDF770FE03214DF2D8
:103200003020FDF76BFE33214DF23120FDF766FED5
:1032100003214DF23220FDF761FE6D214DF2332086
:10322000FDF75CFE00214FF45340FDF757FE3321BC
:103230004DF20130FDF752FE00214DF20230FDF754
:103240004DFE34214DF20330FDF748FE00214DF2D2
:103250000430FDF743FE3A214DF20530FDF73EFE06
:1032600000214DF20630FDF739FE4A214DF20730BC
:10327000FDF734FE00214DF20830FDF72FFE5C21F2
:103280004DF20930FDF72AFE00214DF20A30FDF71C
:1032900025FE81214DF20B30FDF720FE00214DF27D
:1032A0000C30FDF71BFEA6214DF20D30FDF716FE8A
:1032B00000214DF20E30FDF711FEE5214DF20F30E9
:1032C000FDF70CFE01214DF21030FDF707FE132132
:1032D0004DF21130FDF702FE01214DF21230FDF7E3
:1032E000FDFD54214DF21330FDF7F8FD01214DF2A3
:1032F0001430FDF7F3FD82214DF21530FDF7EEFDA0
:1033000001214DF21630FDF7E9FDCA214DF21730CB
:10331000FDF7E4FD02214DF21830FDF7DFFD00213D
:103320004DF21930FDF7DAFD02214DF21A30FDF7AA
:10333000D5FD01214DF21B30FDF7D0FD02214DF2EC
:103340001C30FDF7CBFD34214DF21D30FDF7C6FDDD
:1033500002214DF21E30FDF7C1FD67214DF21F30F5
:10336000FDF7BCFD02214DF22030FDF7B7FD8421B1
:103370004DF22130FDF7B2FD02214DF22230FDF772
:10338000ADFDA4214DF22330FDF7A8FD02214DF241
:103390002430FDF7A3FDB7214DF22530FDF79EFD4A
:1033A00002214DF22630FDF799FDCF214DF2273055
:1033B000FDF794FD02214DF22830FDF78FFDDE214F
:1033C0004DF22930FDF78AFD02214DF22A30FDF73A
:1033D00085FDF2214DF22B30FDF780FD02214DF2EB
:1033E0002C30FDF77BFDFE214DF22D30FDF776FDF3
:1033F00003214DF22E30FDF771FD10214DF22F30DB
:10340000FDF76CFD03214DF23030FDF767FD3321F0
:103410004DF23130FDF762FD03214DF23230FDF700
:103420005DFD6D214DF23330FDF758FD00214FF465
:103430005440FDF753FD332100E07EE34DF201409F
:10344000FDF74CFD00214DF20240FDF747FD342110
:103450004DF20340FDF742FD00214DF20440FDF71F
:103460003DFD3A214DF20540FDF738FD00214DF2BA
:103470000640FDF733FD4A214DF20740FDF72EFDD2
:1034800000214DF20840FDF729FD5C214DF2094075
:10349000FDF724FD00214DF20A40FDF71FFD8121BB
:1034A0004DF20B40FDF71AFD00214DF20C40FDF7E7
:1034B00015FDA6214DF20D40FDF710FD00214DF246
:1034C0000E40FDF70BFDE5214DF20F40FDF706FD27
:1034D00001214DF21040FDF701FD13214DF2114085
:1034E000FDF7FCFC01214DF21240FDF7F7FC5421E1
:1034F0004DF21340FDF7F2FC01214DF21440FDF7AF
:10350000EDFC82214DF21540FDF7E8FC01214DF262
:103510001640FDF7E3FCCA214DF21740FDF7DEFC33
:1035200002214DF21840FDF7D9FC00214DF219405F
:10353000FDF7D4FC02214DF21A40FDF7CFFC00E06C
:10354000FEE201214DF21B40FDF7C8FC02214DF2C5
:103550001C40FDF7C3FC34214DF21D40FDF7BEFCBD
:1035600002214DF21E40FDF7B9FC67214DF21F40CC
:10357000FDF7B4FC02214DF22040FDF7AFFC8421A1
:103580004DF22140FDF7AAFC02214DF22240FDF749
:10359000A5FCA4214DF22340FDF7A0FC02214DF231
:1035A0002440FDF79BFCB7214DF22540FDF796FC2A
:1035B00002214DF22640FDF791FCCF214DF227402C
:1035C000FDF78CFC02214DF22840FDF787FCDE213F
:1035D0004DF22940FDF782FC02214DF22A40FDF711
:1035E0007DFCF2214DF22B40FDF778FC02214DF2DB
:1035F0002C40FDF773FCFE214DF22D40FDF76EFCD3
:1036000003214DF22E40FDF769FC10214DF22F40B1
:10361000FDF764FC03214DF23040FDF75FFC3321E0
:103620004DF23140FDF75AFC03214DF23240FDF7D7
:1036300055FC6D214DF23340FDF750FC00214FF455
:103640005540FDF74BFC33214DF20150FDF746FC90
:1036500000214DF20250FDF741FC34214DF20350A0
:10366000FDF73CFC00214DF20450FDF737FC3A21F8
:103670004DF20550FDF732FC00214DF20650FDF7EA
:103680002DFC4A214DF20750FDF728FC00214DF298
:103690000850FDF723FC5C214DF20950FDF71EFC9C
:1036A00000214DF20A50FDF719FC81214DF20B501B
:1036B000FDF714FC00214DF20C50FDF70FFCA62184
:1036C0004DF20D50FDF70AFC00214DF20E50FDF7B2
:1036D00005FCE5214DF20F50FDF700FC01214DF2F4
:1036E0001050FDF7FBFB13214DF21150FDF7F6FBD7
:1036F00001214DF21250FDF7F1FB54214DF2135010
:10370000FDF7ECFB01214DF21450FDF7E7FB8221A0
:103710004DF21550FDF7E2FB01214DF21650FDF779
:10372000DDFBCA214DF21750FDF7D8FB02214DF207
:103730001850FDF7D3FB00214DF21950FDF7CEFBD9
:1037400002214DF21A50FDF7C9FB01214DF21B5029
:10375000FDF7C4FB02214DF21C50FDF7BFFB3421E5
:103760004DF21D50FDF7BAFB02214DF21E50FDF740
:10377000B5FB67214DF21F50FDF7B0FB02214DF262
:103780002050FDF7ABFB84214DF22150FDF7A6FB45
:1037900002214DF22250FDF7A1FBA4214DF223504E
:1037A000FDF79CFB02214DF22450FDF797FBB7215A
:1037B0004DF22550FDF792FB02214DF22650FDF708
:1037C0008DFBCF214DF22750FDF788FB02214DF2F2
:1037D0002850FDF783FBDE214DF22950FDF77EFBDB
:1037E00002214DF22A50FDF779FBF2214DF22B50C8
:1037F000FDF774FB02214DF22C50FDF76FFBFE210B
:103800004DF22D50FDF76AFB03214DF22E50FDF7CE
:1038100065FB10214DF22F50FDF760FB03214DF2A7
:103820003050FDF75BFB33214DF23150FDF756FB75
:1038300003214DF23250FDF751FB6D214DF2335013
:10384000FDF74CFB00214FF45640FDF747FB3321B9
:103850004DF20160FDF742FB00214DF20260FDF7E1
:103860003DFB34214DF20360FDF738FB00214DF2A2
:103870000460FDF733FB3A214DF20560FDF72EFBA6
:1038800000214DF20660FDF729FB4A214DF2076049
:10389000FDF724FB00214DF20860FDF71FFB5C21C2
:1038A0004DF20960FDF71AFB00214DF20A60FDF7A9
:1038B00015FB81214DF20B60FDF710FB00214DF24D
:1038C0000C60FDF70BFBA6214DF20D60FDF706FB2A
:1038D00000214DF20E60FDF701FBE5214DF20F6076
:1038E000FDF7FCFA01214DF21060FDF7F7FA132104
:1038F0004DF21160FDF7F2FA01214DF21260FDF771
:10390000EDFA54214DF21360FDF7E8FA01214DF272
:103910001460FDF7E3FA82214DF21560FDF7DEFA3F
:1039200001214DF21660FDF7D9FACA214DF2176058
:10393000FDF7D4FA02214DF21860FDF7CFFA00210D
:103940004DF21960FDF7CAFA02214DF21A60FDF737
:10395000C5FA01214DF21B60FDF7C0FA02214DF2BC
:103960001C60FDF7BBFA34214DF21D60FDF7B6FA7D
:1039700002214DF21E60FDF7B1FA67214DF21F6082
:10398000FDF7ACFA02214DF22060FDF7A7FA842181
:103990004DF22160FDF7A2FA02214DF22260FDF7FF
:1039A0009DFAA4214DF22360FDF798FA02214DF211
:1039B0002460FDF793FAB7214DF22560FDF78EFAEA
:1039C00002214DF22660FDF789FACF214DF22760E2
:1039D000FDF784FA02214DF22860FDF77FFADE211F
:1039E0004DF22960FDF77AFA02214DF22A60FDF7C7
:1039F00075FAF2214DF22B60FDF770FA02214DF2BB
:103A00002C60FDF76BFAFE214DF22D60FDF766FA92
:103A100003214DF22E60FDF761FA10214DF22F6067
:103A2000FDF75CFA03214DF23060FDF757FA3321C0
:103A30004DF23160FDF752FA03214DF23260FDF78D
:103A40004DFA6D214DF23360FDF748FA55211846C5
:103A5000FDF744FAAA212046FDF740FA52212846F4
:103A6000FDF73CFA08213046FDF738FA00213846C8
:103A7000FDF734FACC214046FDF730FA00214846E4
:103A8000FDF72CFA05216046FDF728FA7021504613
:103A9000FDF724FA70215846FDF720FA01214FF472
:103AA0003840FDF71BFA03214BF60100FDF716FA2B
:103AB00003214BF60200FDF711FA03214BF6030038
:103AC000FDF70CFA02214FF43C40FDF707FA002104
:103AD0004BF60140FDF702FA00214BF60240FDF7DC
:103AE000FDF9D0214FF44940FDF7F8F902214CF6D9
:103AF0000110FDF7F3F950214CF60210FDF7EEF935
:103B000050214CF60310FDF7E9F950214CF6041052
:103B1000FDF7E4F900214FF45450FDF7DFF955218A
:103B20004FF46850FDF7DAF94FF48850FDF7B4F917
:103B3000782005F0EAF84FF42450FDF7ADF9B9E02C
:103B40004045FCD1E220FDF7A7F91D20FDF7B0F9B3
:103B50000220FDF7ADF90420FDF7AAF9642005F075
:103B6000D4F8E020FDF798F90120FDF7A1F90A202B
:103B700005F0EAF8E020FDF78FF90320FDF798F94A
:103B80000C2005F0E1F80120FDF786F90A2005F088
:103B9000DBF8E620FDF780F92F20FDF789F9FF20FB
:103BA000FDF786F9FF20FDF783F9B020FDF774F9E2
:103BB0002020FDF77DF90020FDF77AF90320FDF7BD
:103BC00077F940F21F30FDF773F90120FDF770F926
:103BD00040F2DF10FDF76CF90020FDF769F9B42021
:103BE000FDF75AF90420FDF763F940F21F40FDF795
:103BF0005FF90020FDF75CF92E20FDF759F9002050
:103C0000FDF756F90020FDF753F90020FDF750F9B4
:103C10000020FDF74DF9B620FDF73EF90220FDF733
:103C200047F94FF40370FDF743F90020FDF740F921
:103C30001720FDF73DF91520FDF73AF90020FDF7B3
:103C400037F90020FDF734F9F020FDF725F90320BE
:103C5000FDF72EF92920FDF71FF9D020FDF71CF9FB
:103C60000020FDF725F9BE20FDF716F90520FDF728
:103C70001FF9FE20FDF71CF90120FDF719F90020BE
:103C8000FDF716F90020FDF713F90020FDF710F9F4
:103C9000B820FDF701F90320FDF70AF90120FDF72F
:103CA00007F9BA20FDF7F8F80120FDF701F96420C3
:103CB000FDF73AFB0020FDF75AFBF8490120C1F857
:103CC000BC024FF6FF70FDF751FC21B0BDE8F08F4C
:103CD0002DE9F0418046A2EB0800401C1F460C462F
:103CE00085B24FF0D84C069E0FE021464046FDF7C6
:103CF0001DF9FDF702F9002003E0ACF88060401CDC
:103D000080B2A842F9D3641CA4B2BC42EDD9BDE88C
:103D1000F0812DE9F0438146A2EB0900401C0E46DC
:103D200085B2981B401C87B200244FF0D848DDF8BC
:103D30001CC015E0301981B24846FDF7F7F8FDF7D1
:103D4000DCF80020414607E004FB05023CF81220A5
:103D5000A1F88020401C80B2A842F5D3641CA4B214
:103D6000BC42E7D3BDE8F0832DE9FC4F0026A2EB6F
:103D7000000C81465F1A701E35468846BCF1000F64
:103D800002DD4FF0010102E003D14FF0000100918C
:103D900002E0CCF1000C0090002F02DD4FF001009A
:103DA00002E003D14FF00000834602E08346C7F1F2
:103DB0000007BC4501DD644600E03C46601C4FF056
:103DC000000A019014E01FFA88F11FFA89F0FDF74C
:103DD00038FA66443D44A64202DD0099361B894408
:103DE000A54201DD2D1BD8440AF101001FFA80FA1B
:103DF00001998A45E7DDBDE8FC8FF0B51C46154604
:103E00000E4607460B46FFF7AFFF3A4623463146BC
:103E10001046FFF7A9FF23462A4619463846FFF702
:103E2000A3FF2A4623463146BDE8F04010469BE7F3
:103E30002DE9F84F84460024154603200F46A0EBD9
:103E400045064AE0781B81B20CEB040900901FFA8A
:103E500089F0FDF7F6F9A7EB040B0CEB05081FFA48
:103E60008BF11FFA88F0FDF7ECF907EB040A1FFA53
:103E70008AF11FFA88F0FDF7E4F907EB05081FFA4D
:103E800088F11FFA89F0FDF7DCF9ACEB04091FFAA1
:103E900088F11FFA89F0FDF7D4F9ACEB05081FFA99
:103EA0008AF11FFA88F0FDF7CCF9009881B21FFA69
:103EB00089F0FDF7C6F91FFA8BF11FFA88F0FDF7BC
:103EC000C0F9641C002E03DA06EB8406B61D04E07C
:103ED000601B06EB80066D1E0A36AC42B2DDBDE803
:103EE000F88F2DE9F84F82461F460C468B4658073F
:103EF00000D0012000EBD700790810FB01F0203A38
:103F0000C0B202F0FF090026009041E00C2F10D053
:103F1000102F12D0182FE2D1614909EBC90001EB33
:103F200080004FF00008855D28060AD55D480288AC
:103F30000BE009EB49005C49F1E75C4901EB091032
:103F4000EFE70A9828B95748428821465046FDF7BE
:103F500084F96806050E5648641CA4B24088A04245
:103F6000BDD9A4EB0B00B84209D10AF101001FFA38
:103F700080FA4F485C4601885145B0D906E008F107
:103F8000010000F0FF08B8F1080FCDD3761CF6B29F
:103F900000988642BAD3A2E70346012000E05843C6
:103FA000491EC9B2FBD270472DE9FF4F81B00027EF
:103FB000DDF838B01D46924680463C46B9464FEA89
:103FC0005B0627E0281B401EC1B20A20FFF7E4FF72
:103FD000BAFBF0F00A21B0FBF1F201FB120027B9A5
:103FE000691E8C4201DA48B101273030C2B206FBAB
:103FF000048080B25B46CDF8009006E006FB0480AA
:1040000080B25B462022CDF800900299FFF769FF4D
:10401000641CE4B2AC42D5D305B057E62DE9FF4F9E
:1040200081B08046DDF83CA00E984FF000091F4695
:1040300093464C460AF0010546082BE0381B401E0B
:10404000C1B20A20FFF7A8FFBBFBF0F00A21B0FBCA
:10405000F1F201FB1200B9F1000F05D1791E8C427B
:1040600002DA48B14FF001093030C2B206FB0480D9
:1040700080B200950E9B08E05FEA0A6006FB0480B0
:104080000E9B80B2009515D530220299FFF729FFCB
:10409000641CE4B2BC42D1D3BEE7000000804042C1
:1040A000FECF0308180000209AC503080ECA0308B3
:1040B000544100202022E8E72DE9F84F044600F0A3
:1040C000FF0810190D46DDE90A761FFA80FA581923
:1040D0001FFA80F94FF0000B11E0544502D3E819A4
:1040E000444685B24D450FD23B4629462046CDF881
:1040F00000B0FFF7F6FE04EB570084B2761C32786E
:10410000A2F120005E28E8D9E9E600001CB50121F3
:10411000112005F010FD1C20009000208DF80400F7
:1041200003208DF8050001248DF8074069463548C5
:1041300005F0DAF802208DF807000094694632484D
:1041400005F0D2F81CBD2DE9F041304C2E4F2D4D1D
:10415000012608B1267001E02078A0B11021284680
:1041600005F013F9B0B10821284605F00EF988B121
:104170000421284605F009F960B10121384605F00F
:1041800004F9012806D01021284605F0FEF8012880
:1041900024D035E00A2004F0D7FD00202070102143
:1041A000284605F0F2F880B10821284605F0EDF820
:1041B00070B10421284605F0E8F858B101213846CD
:1041C00005F0E3F8012807D01AE00120BDE8F081EE
:1041D0000220FBE70320F9E70420F7E7082128463F
:1041E00005F0D3F801280BD10421284605F0CDF8BD
:1041F000012805D10121384605F0C7F800B926701D
:104200000020E3E700100240000002401C000020F4
:104210001CB50121022005F08EFC4FF440700124F2
:1042200000908DF8044000208DF8060003208DF8E2
:1042300005008DF807406946C04805F055F8C048AC
:10424000C0F8A042C0F8A4421CBD70B5BB480168CC
:1042500021F440210160016841F480210160B84CE3
:104260000120C4F8A402C4F8A002042004F52874B4
:1042700004F04BFD00256560042004F046FD256038
:1042800070BDAE4810B5016821F44021016001689D
:1042900041F480210160AA4C0020C4F8A002C4F8B7
:1042A000A402042004F5287404F02FFD01202060EE
:1042B0006060BDE81040042004F027BD70B59F4841
:1042C0000024016821F440210160016801609C4DD7
:1042D0000126C5F8A462304604F017FDC5F8A062B7
:1042E000012004F012FD07E0641CE4B2FA2C03D9AB
:1042F000FFF7C7FF012070BDD5F824020028F3D1D5
:10430000C5F8A00270BD70B58D4C0025C4F8A05250
:104310008A48016821F440210160016841F480214C
:104320000160C4F8A452022004F5287404F0EDFCE6
:1043300001202060022004F0E8FC256070BD70B50B
:104340007F4C0026C4F8A0627C48016821F440211B
:104350000160016841F4802101600125C4F8A45284
:10436000022004F5287404F0D0FC2560022004F03B
:10437000CCFC266070BD2DE9F04105466F48016810
:1043800021F440210160016841F4802101606C4EFC
:104390000027C6F8A0723C464FF00108E809C6F8AD
:1043A000A4026806050E022004F0AFFCC6F8A08245
:1043B000022004F0AAFCC6F8A072022004F0A5FCBA
:1043C000641CE4B2082CE9D3BDE8F0812DE9F04784
:1043D00081465A480024016821F4402101600168A7
:1043E0000160574E254627464FF00108C6F8A072D7
:1043F000022004F08AFCC6F8A0826006040ED6F8FB
:10440000240208B1641CE4B2012004F07EFC6D1C9F
:10441000EDB2082DEAD3B9F1000F04D0FFF773FF16
:104420002046BDE8F087FFF78AFFF9E770B515462B
:104430000E460446FFF709FF2046FFF79CFFFFF7F3
:104440003DFF002406E0305DFFF795FFFFF736FFE4
:10445000641CE4B2AC42F6D3FFF713FFBDE8704032
:104460000A2004F071BC2DE9F0411F4616460D46A6
:104470000446FFF7EAFE2046FFF77DFFFFF71EFF29
:104480002846FFF778FFFFF719FF44F00100FFF718
:1044900072FFFFF713FF00247D1E05E00120FFF7E8
:1044A00095FF3055641CE4B2AC42F7DB0020FFF707
:1044B0008DFFF11901F8010CFFF7E3FEBDE8F041B3
:1044C0000A2004F041BC70B515460E460446FFF7BD
:1044D000BCFE2046FFF74FFFFFF7F0FE3046FFF728
:1044E0004AFFFFF7EBFEFFF7B0FE44F00100FFF7D5
:1044F00042FFFFF7E3FE0020FFF768FF2870BDE8EA
:104500007040BEE670B515460E460446FFF79DFEA8
:104510002046FFF730FFFFF7D1FE3046FFF72BFFB5
:10452000FFF7CCFE2846FFF726FFFFF7C7FEFFF791
:10453000A8FEBDE870400A2004F006BC000402405A
:1045400000804042FFF764BE10B50446FFF77DFED1
:10455000200AA02101EB4000C0B2FFF70CFFFFF7DB
:10456000ADFEE0B2FFF707FFFFF7A8FEFFF76DFE15
:10457000A120FFF700FFFFF7A1FE0020FFF726FFB5
:104580000446FFF77EFE204610BD70B50D4604467A
:10459000FFF75BFE200AA02101EB4000C0B2FFF74D
:1045A000EAFEFFF78BFEE0B2FFF7E5FEFFF786FEBF
:1045B0002846FFF7E0FEFFF781FEFFF762FEBDE849
:1045C00070400A2004F0C0BB2DE9F04116460D46AC
:1045D0000746002409E0E00025FA00F0C1B23819CE
:1045E00080B2FFF7D2FF641CE4B2B442F3D3BDE85B
:1045F000F0812DE9F0410D460146002004464E1998
:1046000008E00702301B401E80B2FFF79DFF641CCC
:104610003844E4B2AC42F4D3E9E710B5FF20FFF729
:1046200093FF55280AD05521FF20FFF7AEFFFF204A
:10463000FFF78AFF552801D0012010BD002010BDD2
:1046400070B515460E46044608E02046641CA4B228
:10465000FFF77AFF6D1E06F8010BADB2002DF4D105
:1046600070BD70B514460D46064606E02978304602
:10467000FFF78BFF761CB6B26D1C641EA4B2F5D298
:1046800070BD0000022004F040BB1CB501212220B7
:1046900005F051FA01248DF804408DF8064000948D
:1046A0008DF807406946714804F01EFEE002009054
:1046B0008DF8044069466E4804F016FE1CBD70B5C6
:1046C0006C4E0120C6F8AC026B4DC5F8800202208A
:1046D00005F5207506F52B7604F017FB00243460F1
:1046E000022004F012FB2C60BDE87040022004F0B0
:1046F0000CBB70B55F4C0020C4F8AC02022004F57E
:104700002B7404F002FB5C480125C0F880520220A3
:1047100004F0FBFA2560BDE87040022004F0F5BA11
:104720002DE9F0410024534E01272546C6F8AC720E
:10473000022004F0EAFA38464F4FC7F8800207E03B
:10474000641CE4B2FA2C03D9FFF7D3FF012506E07D
:10475000022004F0DAFAD6F82C020028F0D100206A
:10476000C7F88002022004F0D0FA2846BDE8F081A4
:104770002DE9F0413F4E0025C6F8AC52022006F567
:104780002B7604F0C2FA3C4F0124C7F88042022085
:1047900007F5207704F0B9FA3D60022004F0B5FA7D
:1047A0003460BDE8F041022004F0AFBA70B5314882
:1047B0000124C0F8AC42022004F0A7FA2E4DC5F83F
:1047C0008042022005F5207504F09FFA0020286041
:1047D000BDE87040022004F098BA2DE9F0470024AB
:1047E000244E254F0546A1464FF00108E809C6F8BA
:1047F000AC02022004F089FAC7F88082022004F09B
:1048000084FAC7F880926806641C050EE4B2082C8E
:10481000ECD3C6F8AC82BDE8F0872DE9F047002460
:10482000DFF85080144E824625460127A1466006D7
:10483000040EC6F88072022004F067FAD8F82C0241
:1048400008B1641CE4B2C6F88092022004F05DFA5C
:104850006D1CEDB2082DEAD3BAF1000F03D0FFF7BB
:1048600087FF2046D7E7FFF7A1FFFAE700040240E1
:104870000014024000804242008040422DE9F04195
:1048800015460E4604460027FFF719FF2820FFF7BC
:10489000A4FFFFF745FF200AFFF79FFFFFF740FF48
:1048A000E0B2FFF79AFFFFF73BFF002408E0305D1E
:1048B000FFF793FFFFF734FF070003D1641CE4B256
:1048C000AC42F4D3FFF715FF3846BDE8F08108B5D8
:1048D00000218DF800108DF80100B7489DF80020E8
:1048E000435C491C1A44C9B28DF80020B829F5D39D
:1048F000D0B2C043401C8DF80000B822AE4948F247
:104900004700FFF7BBFF0222694648F2FF00FFF7AE
:10491000B5FF002008BD2DE9F04115460F460446BD
:10492000FFF7CDFE2820FFF758FFFFF7F9FE200A1A
:10493000FFF753FFFFF7F4FEE0B2FFF74EFFFFF77C
:10494000EFFEFFF7BCFE2920FFF747FFFFF7E8FE69
:1049500000246E1E09E0B44201D0012000E00020D6
:10496000FFF75BFF3855641CE4B2AC42F3D3BDE8FB
:10497000F041FFF7BEBE2DE9FF410121062005F001
:10498000DAF800248DF804408DF8064003208DF8F5
:104990000500DFF828820226012500968DF80750D1
:1049A0006946404604F0A0FC680300908DF804506E
:1049B0006946834804F098FCFFF767FE814FC7F80B
:1049C000B4420A2007F52D7704F0BEF93D600A20B5
:1049D00004F0BAF98DF8045000968DF80740694646
:1049E000404604F081FC642004F0AEF9042202A9E0
:1049F00048F24010FFF78FFF8DF80C4002A972A01B
:104A000034F098FA73A102A834F0BAFD08BB48F25A
:104A100040058DF80860012202A92846FFF72EFF05
:104A2000012202A9E81DFFF776FF9DF80810602912
:104A300005D26AA034F07EFA0120FFF748FF0A2071
:104A400004F082F98DF80840012202A92846FFF7F8
:104A500015FF002004B038E72DE9F147644D00242C
:104A60004FF00A0A287883B0401CC0B2B0FBFAF2BB
:104A70000AFB12015F4EA046287009B10A286FD2C6
:104A800048F24E19012203A94846FFF744FF0027C8
:104A90008DF80470012201A94846FFF7EFFE9DF84A
:104AA0000C0001075CD000F00F01062958D2FF204E
:104AB00088408DF80400C04396F8209040F0C00074
:104AC00086F82000B089B082F08AF0834FF00108A8
:104AD00096F8201008FA04F0014226D03648042245
:104AE000B830694630F81400FFF715FF96F830002B
:104AF0009DF80110C0079DF8000000EB012106EBB6
:104B000044000AD0C1829DF802109DF8032001EBF9
:104B10000221C1F54871818107E081819DF8021071
:104B20009DF8032001EB0221C182641CE4B2052C34
:104B3000CED33149B2894FF001080B8830469A42F2
:104B400003D8C28A49888A4209D99DF80C1001F01D
:104B50000F0101290BD9C1898181018BF1822F704D
:104B60009DF80C0000F08F0080280AD01AE0818A9E
:104B70008181C18BC18280218DF80C1086F8209034
:104B8000EEE796F82000010603D520F0800086F8B5
:104B900020004FF6FF7026F80C0F7081307D00F07A
:104BA000E00030752878F02801D985F800A004B01D
:104BB0004046BDE8F08700005ADD030800040240CB
:104BC00000080240000041424354502049443A2525
:104BD000730D0A0039313437000000004465666106
:104BE000756C74205665723A25640D0A0000000049
:104BF0001D0000202C000020544100202DE9F04130
:104C000015460E4604460027FFF759FDB220FFF770
:104C1000E4FDFFF785FD200AFFF7DFFDFFF780FDCC
:104C2000E0B2FFF7DAFDFFF77BFD002408E0305D1E
:104C3000FFF7D3FDFFF774FD070003D1641CE4B256
:104C4000AC42F4D3FFF755FD3846BDE8F0812DE9BD
:104C5000F04115460F460446FFF731FDB220FFF73D
:104C6000BCFDFFF75DFD200AFFF7B7FDFFF758FD1C
:104C7000E0B2FFF7B2FDFFF753FDFFF720FDB320D1
:104C8000FFF7ABFDFFF74CFD00246E1E09E0B442B8
:104C900001D0012000E00020FFF7BFFD3855641C63
:104CA000E4B2AC42F3D3BDE8F041FFF722BD08B552
:104CB00000218DF8001010B180208DF80000012235
:104CC00069464FF45060FFF799FF08BDFEB5002418
:104CD0008DF808400121062004F02DFF02200090ED
:104CE0008DF804408DF8064003208DF8050001255D
:104CF0008DF8075069466B4804F0F6FA6803009097
:104D00008DF804506946684804F0EEFAFFF7BDFCE0
:104D1000664EC6F8B442642006F52D7604F014F809
:104D20003560642004F010F80120FFF7C0FF012275
:104D300002A94FF45060FFF78AFF9DF808105CA0AD
:104D400034F0F8F89DF80800802801D00120FEBD5D
:104D50000020FEBD2DE9F143584F00242DED048BBA
:104D60004FF00A0882B03878554E401CC0B2B0FBF4
:104D7000F8F208FB12012546387009B10A2873D2EF
:104D8000012206A90020FFF762FF9DF81800C10666
:104D90006ED000F01F0040F0C00086F820004FF0F9
:104DA00001099FED488B9FED499B96F8201009FA69
:104DB00004F001424BD047480422694630F8140001
:104DC000FFF745FF96F830009DF80210C0079DF8E8
:104DD000030000EB012020D037F01AF853EC182B19
:104DE00037F066F836F0D0FF06EB4405E8829DF810
:104DF00001009DF8001000EB012037F009F853EC9A
:104E0000192B37F055F89FED341B53EC112B37F06D
:104E100083F936F0B9FFA88119E036F0F9FF53ECB9
:104E2000182B37F045F836F0AFFF06EB4405A881A4
:104E30009DF801009DF8001000EB012036F0E8FF1E
:104E400053EC192B37F034F836F09EFFE882641CDF
:104E5000E4B2052CA9D30125B28900211AB9F08A40
:104E600008B98DF8181039709DF81800C0060ED1D9
:104E700096F82000010602D520F0800005E04FF6EC
:104E8000FF71B181F18200F0E00086F820003878EF
:104E9000F02801D987F8008002B02846BDEC048BC9
:104EA000BDE8F883000402400008024000004142CF
:104EB0004354502049443A25780D0A001E00002032
:104EC0002C0000207B14AE47E17AD43FD881734692
:104ED00094F6D23F1CDE0308000000000000894069
:104EE0002DE9F04115460E4604460027FFF7E7FB83
:104EF0007020FFF772FCFFF713FCE0B2FFF76DFCC8
:104F0000FFF70EFC002408E0305DFFF766FCFFF7BA
:104F100007FC070003D1641CE4B2AC42F4D3FFF7F2
:104F2000E8FB3846BDE8F0812DE9F04115460F4613
:104F30000446FFF7C4FB7020FFF74FFCFFF7F0FBC0
:104F4000E0B2FFF74AFCFFF7EBFBFFF7B8FB71207D
:104F5000FFF743FCFFF7E4FB00246E1E09E0B442B8
:104F600001D0012000E00020FFF757FC3855641CF9
:104F7000E4B2AC42F3D3BDE8F041FFF7BABB2DE990
:104F8000FF410121062004F0D6FD00248DF80C40DD
:104F90008DF80E4003208DF80D00022601250296A3
:104FA0008DF80F5002A9C54804F09EF968030290DD
:104FB0008DF80C5002A9C24804F096F9FFF765FB82
:104FC000C04FC7F8B442142007F52D7703F0BCFE9C
:104FD0003D60322003F0B8FE8DF8004001226946A2
:104FE0000020FFF77DFF01226946A420FFF778FF2C
:104FF00016208DF80000012269468020FFF770FF1F
:105000000C208DF80000012269468820FFF768FF18
:1050100002226946A120FFF787FF9DF80000302893
:1050200003D19DF8010003282AD00422694648F2E2
:105030004010FFF770FC8DF804406946A2A033F0E1
:1050400079FFA448009948F24005C0F802108DF895
:105050000060012269462846FFF710FC01226946DC
:10506000E81DFFF758FC0A2003F06EFE8DF80040A3
:10507000012269462846FFF701FC002004B051E7F1
:1050800043F2030194A033F055FFF6E72DE9F14711
:1050900083B000278F4D8DF804704FF00A0A6878AE
:1050A000904C401CC0B2B0FBFAF20AFB1201B846A9
:1050B000687009B10A2870D286488BA1801C34F030
:1050C0005FFA4FF0010203A908B30220FFF72CFF9B
:1050D0009DF80C00010760D000F00F012878814294
:1050E0005BD8FF228A40D14394F8209041F0C00160
:1050F00084F8201004EB4000A1894181E18A81827B
:10510000042003F021FE8DF80470784E85E048F20B
:105110004E163046FFF7FFFB9DF80C000106D7D571
:10512000297800F00F008842D2D88DF8047001224F
:1051300001A93046FFF7A2FBCAE794F8201001222C
:105140008240114264D0634867A1801C34F018FA91
:1051500020B367489DF80410042230F81100694616
:10516000FFF7E2FE94F830009DF80010C0079DF8AC
:10517000010001F00F0139D000EB01219DF804007E
:1051800004EB4000C1829DF802209DF8031002F05C
:105190000F0201EB022181813AE058E054489DF86A
:1051A00004100A30042230F811006946FFF7B3FBFF
:1051B00094F830009DF80110C0079DF8000000EB46
:1051C00001219DF8040004EB400005D081819DF889
:1051D00002109DF8032018E0C1829DF802109DF88E
:1051E000032001EB02213288511AD4E700EB0120A1
:1051F0003188091A9DF8040004EB400081819DF874
:1052000002209DF8031002F00F0201EB0221C1827F
:105210009DF80400401C8DF804009DF804002978D6
:1052200088428AD3A08931884FF00108884203D888
:10523000E08A7188884209D99DF80C0000F00F00BF
:10524000012812D9E089A081208BE0826F7021486B
:1052500025A1801C34F094F900289DF80C004FF62D
:10526000FF710FD0C00624D01AE0287804EB40006C
:105270004189A181808AE08280208DF80C0084F829
:105280002090E4E700F08F00802812D008E020F0A2
:10529000800003E0A181E18200F0E00084F82000BA
:1052A0006878F02801D985F801A004B04046BDE82F
:1052B000F08794F820000206ECD5E8E700040240ED
:1052C00000080240000041424354502049443A251E
:1052D000730D0A001F0000204354502049443A2512
:1052E000780D0A002C000020393131005441002093
:1052F00026DE03082DE9F0470024FD4EFD4F05464C
:10530000A0464FF00109280601D5484600E0404676
:10531000C6F8AC026806050EC7F88082012003F0CB
:10532000F4FCC7F88092641CE4B2082CEBD3BDE80F
:10533000F0872DE9F0470025EE4F2C462E46C7F8A2
:105340008052EB49C1F8AC52DFF8ACA3CAF8B452B2
:1053500007F52077FFF7CEFF062003F0D6FC3E606E
:10536000012003F0D2FC4FF00108C7F8008040464E
:1053700003F0CBFC3E60B14646464FF6FF78A7F5FA
:10538000207708EA4404C7F88092012003F0BDFCAE
:10539000C7F88062D7F8080208B1641CA4B26D1C7B
:1053A000EDB2102DEDD32009CAF8B462BFE7FEB507
:1053B000064600246D463046FFF7BBFF25F8140073
:1053C000641CA4B2052CF6D300214C1CA0B20BE047
:1053D00035F8113035F81020934203D925F8112003
:1053E00025F81030401C80B20528F1D3A1B2042961
:1053F000EBD30021012035F81020401C114480B26D
:1054000089B20428F7D30320B1FBF0F0FEBD2DE9EB
:10541000F041BA4F06460D463878FFF7C8FF0446FC
:105420007878FFF7C4FF348028800120BDE8F08140
:1054300070B586B00C460546694604A8FFF7E7FF3D
:1054400000282FD001A903A8FFF7E1FF002829D0E9
:10545000BDF80C30BDF81020934203D803F13200A0
:10546000824205D39A421FD802F1320083421BD2F6
:10547000BDF80410BDF80000814203D801F13206E6
:10548000B04204D388420FD8323081420CD2D018B7
:1054900040082880BDF80000BDF80410084440080A
:1054A0002080012006B070BD0020FBE72DE9F0410F
:1054B000044693480D460B46028004F10D0082B26B
:1054C000193880B2FEF750FC05F10D0083B219388F
:1054D00081B222461046FEF747FC6E1C04F101081B
:1054E000B1B21FFA88F0FBF7ACFEB1B2661EB0B2E3
:1054F000FBF7A7FE6F1EB9B21FFA88F0FBF7A1FEFB
:10550000B9B2B0B2FBF79DFE29462046BDE8F04196
:105510000622FEF78DBC70B5064679480C4602801F
:105520003046FBF78EFE751CA8B22146FBF789FEBC
:10553000641CA1B23046FBF784FEA1B2A8B2BDE85C
:105540007040FBF77EBE6B4910B5D1F804126B4C6E
:10555000241D41B194F82000010647D520F08000B9
:1055600084F8200049E00200644800F1040000F1E2
:10557000160100F10C0002D0FFF75AFF2AE0FFF7F6
:1055800057FF38B3B4F92C0094ED091A00EE100A55
:10559000A08900EE900AB8EEC00AF8EE600A01EEAB
:1055A000200ABCEEC00A10EE100AA081B4F92E0049
:1055B00094ED0A1A00EE100AE08A00EE900AB8EEA6
:1055C000C00AF8EE600A01EE200ABCEEC00A10EE36
:1055D000100AE08294F8200000060ED4C02084F85F
:1055E0002000A089A082E08AE08306E00020A0825B
:1055F000E0834FF6FF70A081E08294F8200000F075
:10560000800010BD10B53D4C04222DED028B241DF1
:105610009FED3C8A94ED090A282020EE080ABDEE91
:10562000C00A10EE101AFEF7CFFF94ED0A0A04220A
:105630002C2020EE080ABDEEC00A10EE101AFEF76C
:10564000C3FFB4F92C1002223020FEF7BDFFB4F9DD
:105650002E1002223220FEF7B7FF94F830103420CB
:10566000FEF793FFBDEC028B0A21BDE81040352008
:10567000FEF78BBF10B535202DED028BFEF764FFD2
:105680000A2803D00020BDEC028B10BD0421282085
:10569000FEF7AFFF00EE100A9FED1A8A174CB8EE26
:1056A000C00A241D04212C20C0EE080AC4ED090AFA
:1056B000FEF79FFF00EE100A02213020B8EEC00A6C
:1056C000C0EE080AC4ED0A0AFEF793FFA085022186
:1056D0003220FEF78EFFE0853420FEF735FF902361
:1056E000211F84F83000D02270B10B704A700DE099
:1056F00000804242008040420000414228000020D9
:105700001800002020BCBE4C0A704B700120BAE784
:105710002DE9FF4F83B00746DDE910A993460E46F9
:105720004FF47840FE49DDF8508010240880FDA039
:10573000CDE90040FC4DA02128206B882A88FEF787
:10574000BBFCFAA0CDE900406B882A88A021782014
:10575000FEF7B2FCF6A0CDE900406B882A88B421A0
:105760002820FEF7A9FCF3A0CDE900406B882A8829
:10577000B4217820FEF7A0FCEFA0CDE900406B88B3
:105780002A88C8212820FEF797FCECA0CDE900402C
:105790006B882A88C8217820FEF78EFCE8A0CDE926
:1057A00000406B882A88DC212820FEF785FCE5A0D4
:1057B000CDE900406B882A88DC217820FEF77CFC4C
:1057C000E1A0CDE900406B882A88F0212820FEF76F
:1057D00073FC04233A46A02140200094FEF7E4FB2A
:1057E00004233246A02190200094FEF7DDFB042321
:1057F0005A46B42140200094FEF7D6FB04230094BF
:10580000B4219020069AFEF7CFFB04235246C8210C
:1058100040200094FEF7C8FB04234A46C82190208C
:105820000094FEF7C1FB04230094DC214020129A6F
:10583000FEF7BAFB04230094DC219020139AFEF7B4
:10584000B3FB03234246F02160200094FEF7ACFB3B
:1058500007B0BDE8F08F2DE9F04FB14E1F202DEDC0
:105860000C8B89B04FF6FF77002425463080B8486E
:1058700007803846FBF77AFE4FF47848A6F8008098
:105880003846FBF773FEB3480027378001684FF0B6
:10589000100ACDE900A128216423A0220846FEF7C2
:1058A0000BFC142142460846FFF700FEAA4880F888
:1058B00020709FEDAA0A80ED090A9FEDA9CB9FED0C
:1058C000AADB9FEDABBB984E80464FF0900BA0F14A
:1058D0000409D8F8041047460120884797F82000AB
:1058E0000121B1EB901F46D120F0400087F8200045
:1058F00005A8BA8920F8242000EB8400641C002548
:10590000F98AE4B2B8464180012C06D0022C11D0AD
:10591000032C1ED0042C2ED13BE014214FF6FF7235
:105920000846FFF7C3FD30884FF47842143880B240
:1059300014211EE030884FF6FF72143880B2142113
:10594000FFF7B4FD70884FF47842143881B2142008
:105950000FE070884FF6FF72143881B21420FFF701
:10596000A5FD70884FF47842143881B2308814381D
:1059700080B2FFF79BFD0A2003F0E6F96D1CADB283
:10598000B5F57A7FA5D9FFF775FE09B0BDEC0C8B94
:105990005FE7BDF81400BDF81810411A00D5494260
:1059A000BDF81600BDF81A20801A00D540424943C0
:1059B0004043084436F02CFA41EC100B35F0F0FD72
:1059C00051EC100B36F0E0F984B2BDF81C00BDF8C4
:1059D0002010411A00D54942BDF81E00BDF8222012
:1059E000801A00D5404249434043084436F010FA3B
:1059F00041EC100B35F0D4FD51EC100B36F0C4F92E
:105A000000EE104A87B2F8EE400A00EE107AB8EEC7
:105A1000401A80EE810A10EE100A36F03FFDB0EE1B
:105A20004C9AF0EE6C9A41EC180B53EC192B36F0B3
:105A300003FA5BD3B0EE4DAAF0EE6DAA53EC1A2B2D
:105A400051EC180B36F032FB50D3ECB3E7B3BDF892
:105A50001400BDF81C10411A00D54942BDF81600CB
:105A6000BDF81E20801A00D54042494340430844F7
:105A700036F0CEF941EC100B35F092FD51EC100BE5
:105A800036F082F984B2BDF81800BDF82010411A32
:105A900000D54942BDF81A00BDF82220801A00D571
:105AA000404249434043084436F0B2F941EC100B00
:105AB00035F076FD51EC100B36F066F900EE104A29
:105AC00080B2F8EE400A00E010E000EE100AB8EEF6
:105AD000401A80EE810A10EE100A36F0DFFC41EC2D
